:030000000209757D
:0C097500787FE4F6D8FD75817F0209BC94
:030BC700017C00AE
:070BC000AE071FEE70FA22E0
:100B9500AD07AF051DEF60077FC5120BC080F322BF
:100B69007580FFC2B5D2B6D2B4E58030E706C2B40B
:070B7900D2B480F5C2B422E2
:070B34002430FFD200D201C2
:100B3B00300103120B69A20092B5C2B68F80D2B4FA
:040B4B0000C2B4220E
:100B8000C2B5C2B48F807F05120B95D2B47F051217
:050B90000B95C2B42228
:100B4F0053070153050FEF6005ED24C08003ED241B
:0A0B5F0080FFC200D201120B3B22FE
:100A8800C2B67F0F120B95C200C2017F38120B3B12
:100A98007F05120B95C200C2017F38120B3B7F0500
:100AA800120B95C200C2017F38120B3BC200D20163
:100AB800120B3BC200D2017F08120B3BC200D201CD
:100AC8007F01120B3BC200D2017F06120B3BC20012
:070AD800D2017F0C020B3B71
:100BA500758920758DF9758BF9E4F587759890220F
:1008E700AF78E4FD120B4FD200D201AF21120B3BC0
:1008F700D200D201AF21120B3BD200D201AF21129D
:100907000B3BAF787D06120B4FE57E120B34E57D6E
:10091700120B34D200D2017F3A120B3BE57B120B4C
:1009270034E57A120B34D200D2017F3A120B3BE541
:1009370023120B34E522120B34E57F7D0F7F01B4C0
:10094700010B120B4FD200D2017F248009120B4FEB
:10095700D200D2017F25120B3B7D0FE4FF120B4F14
:0E096700D200D201AF76120B3B7F05020BC00F
:100A0100E57C75F05084742525F0F8A621E57C2459
:100A110001FFE433FE7C007D50120ADF74252DF8BE
:100A2100A678E57CFB7A002402FFEA33FE7C007D98
:100A310050120ADF74252DF8A675EB2403FFEA3363
:100A4100FE7C007D50120ADF74252DF8A624E57C7A
:100A5100FB2404FFEA33FE7C007D50120ADF74257B
:100A61002DF8A679EB2405FFEA33FEC3EF9450EE8F
:100A710064809480400A7C007D50120ADF8D7C22C4
:070A81007405257CF57C22C1
:10080000E4F57FC298E59964AA60073098FDC29824
:1008100080F33098FDC2987F05120B95859976304C
:1008200098FDC298A2D0309A01B35003757F017F22
:1008300005120B958599213098FDC298A2D0309A67
:1008400001B35003757F017F05120B95AF99757742
:10085000008F783098FDC298A2D0309A01B350032F
:10086000757F017F05120B958599753098FDC298AB
:10087000A2D0309A01B35003757F017F05120B950A
:100880008599243098FDC298A2D0309A01B35003C4
:10089000757F017F05120B958599793098FDC29877
:1008A000A2D0309A01B35003757F01E57575F00A47
:1008B00084F57EE57575F00A8485F07DE52475F094
:1008C0000A84F57BE52475F00A8485F07AE579756C
:1008D000F00A84F523E57975F00A8485F022120880
:0708E000E7120A0102080003
:0B0BB500120A88120BA512080080FE37
:10098100020BB5E493A3F8E493A34003F68001F2CC
:1009910008DFF48029E493A3F85407240CC8C33377
:1009A100C4540F4420C8834004F456800146F6DF46
:1009B100E4800B0102040810204080900BC7E47E04
:1009C100019360BCA3FF543F30E509541FFEE4933B
:1009D100A360010ECF54C025E060A840B8E493A302
:1009E100FAE493A3F8E493A3C8C582C8CAC583CA2D
:1009F100F0A3C8C582C8CAC583CADFE9DEE780BEE5
:010BCA00002A
:100ADF00BC000BBE0029EF8DF084FFADF022E4CCFB
:100AEF00F875F008EF2FFFEE33FEEC33FCEE9DECC4
:100AFF00984005FCEE9DFE0FD5F0E9E4CEFD22ED0A
:100B0F00F8F5F0EE8420D21CFEADF075F008EF2F53
:100B1F00FFED33FD4007985006D5F0F222C398FD44
:050B2F000FD5F0EA22E1
:00000001FF
