:03000000020D05E9
:0C0D0500787FE4F6D8FD75817C020AC2FC
:100C3000D2A3D2A4E4FF20A3FDE4FEEFC313FF3050
:100C4000A3FD20A3FD0030A4034307800EBE08EBE4
:0F0C500030A3FD20A3FD30A3FD20A3FD30A3FDA5
:010C5F002272
:10080000120C30EF120A9C08AA1508CB1608C51A5C
:1008100008B01B087A1C08BC1D08CE1E08802108E1
:10082000BF2208832308862408D42508D12608B9C6
:100830002A08892B08B32C08AD2D08D72E08A13122
:10084000087D32088F33088C3408C23508DA360840
:100850009E3A08953B08B63C08DD3D08E03E089806
:100860004208924308A44408C84508E346089B4B45
:1008700008A74D08E6F0000008E97F41227F4222E8
:100880007F43227F44227F45227F46227F47227F6B
:1008900048227F49227F4A227F4B227F4C227F4D74
:1008A000227F4E227F4F227F50227F51227F522271
:1008B0007F53227F54227F55227F56227F57227FEB
:1008C00058227F59227F5A227F30227F31227F3265
:1008D000227F33227F34227F35227F36227F3722C8
:0B08E0007F38227F39227F40227FFFFB
:0108EB0022EA
:070D1100AE071FEE70FA228D
:040CF100C2997F0520
:100CF500AD07AF051DEF60077FC5120D1180F3220B
:100CC5007580FFC2B5D2B6D2B4E58030E706C2B4AE
:070CD500D2B480F5C2B42285
:070C90002430FFD200D20165
:100C9700300103120CC5A20092B5C2B68F80D2B440
:040CA70000C2B422B1
:100CDC00C2B5C2B48F807F05120CF5D2B47F051259
:050CEC000CF5C2B4226A
:100CAB0053070153050FEF6005ED24C08003ED24BE
:0A0CBB0080FFC200D201120C972244
:100B3000C2B67F0F120CF5C200C2017F38120C97AB
:100B40007F05120CF5C200C2017F38120C977F0599
:100B5000120CF5C200C2017F38120C97C200D201FC
:100B6000120C97C200D2017F08120C97C200D2016A
:100B70007F01120C97C200D2017F06120C97C200AF
:070B8000D2017F0C020C976B
:100C6000E4F575F521F57CF57BF57AF579F523F555
:100C700022758921F587759880758C3C758AB0D26C
:100C8000AFD2A9D28C758DF9758BF9A2D0929B2227
:100BDC00AB07AA06AE05E4FD120CABAF06120C93E4
:100BEC00120C93120C93AF037D06120CABE57C1226
:100BFC000C90E57B120C90D200D2017F3A120C972C
:100C0C00E57A120C90E579120C90D200D2017F3A61
:100C1C00120C97E523120C90E5222430FFD200D25F
:040C2C0001020C971E
:03000B000208ECFC
:1008EC00C0E0C0F0C0D075D000C000C002C003C0D2
:1008FC0004C005C006C007758C3C758AB00524E59C
:10090C00246414703CF5240579E57964097032F59A
:10091C0079057AE57A64067028F57A057BE57BB46F
:10092C00091F757B00057CE57CB40615757C00758C
:10093C007B00757A0075790075230075220075248B
:10094C0000E52475F005A4FBAAF07C007D0AFFAE3F
:10095C0002120A478F237C007D0AAF03AE02120AF3
:10096C00478D22852478E57A75F00AA42579F576E9
:10097C00E57C75F00AA4257BF577D007D006D00569
:0F098C00D004D003D002D000D0D0D0F0D0E032D1
:10099B00AC05AB07AA06C2ACC2997599AA3099FDF2
:1009AB00120CF17599313099FD120CF18C9930992B
:1009BB00FD120CF18B993099FD120CF18577993062
:1009CB0099FD120CF18576993099FD120CF1857811
:1009DB00993099FDC299D2ACE52175F050847425FC
:1009EB0025F0F8A604E5212401FFE433FE7C007D0D
:1009FB0050120A4774252DF8A603E521FB7A002433
:100A0B0002FFEA33FE7C007D50120A4774252DF855
:100A1B00A677EB2403FFEA33FE7C007D50120A47D6
:100A2B0074252DF8A676E5212404FFE433FE7C0023
:0C0A3B007D50120A4774252DF8A6782281
:100B8700E575C39521504DE4FCECD395215042C245
:100B9700997599AA3099FD120CF17599313099FD23
:100BA700C299AB04EC2405FFE433FEEBC39FEE646C
:100BB70080F874809850147F05120CF574252BF873
:100BC700E6F5993099FDC2990B80D974052CFC8004
:040BD700B885217547
:010BDB0022F7
:100AC200750840120B30120C60120800A907E9F4F5
:100AD200604CB94024120800A907AD017F017E00D5
:100AE200120BDCAD017F017E0012099B74052521EA
:100AF200F521D3945040278022E965086020AD019A
:100B0200E4FFFE120BDC8908AD01E4FFFE12099B33
:100B120074052521F521D394504003752150E576C3
:0E0B2200B41EA6E578641E70A0120B87809B9F
:100A4700BC000BBE0029EF8DF084FFADF022E4CC93
:100A5700F875F008EF2FFFEE33FEEC33FCEE9DEC5C
:100A6700984005FCEE9DFE0FD5F0E9E4CEFD22EDA2
:100A7700F8F5F0EE8420D21CFEADF075F008EF2FEC
:100A8700FFED33FD4007985006D5F0F222C398FDDD
:050A97000FD5F0EA227A
:100A9C00D083D082F8E4937012740193700DA3A3E9
:100AAC0093F8740193F5828883E4737402936860FD
:060ABC00EFA3A3A380DFFD
:00000001FF
